{
  "address": "0x936b22487E350b90FA3d05e49De5F9707d63d65A",
  "abi": [
    {
      "inputs": [
        {
          "internalType": "address",
          "name": "_admin",
          "type": "address"
        },
        {
          "internalType": "address",
          "name": "_adminController",
          "type": "address"
        },
        {
          "internalType": "address",
          "name": "_verifier",
          "type": "address"
        },
        {
          "internalType": "contract AggregatorV3Interface",
          "name": "_priceFeed",
          "type": "address"
        },
        {
          "internalType": "string",
          "name": "_name",
          "type": "string"
        },
        {
          "internalType": "string",
          "name": "_symbol",
          "type": "string"
        },
        {
          "internalType": "string",
          "name": "_uri",
          "type": "string"
        }
      ],
      "stateMutability": "nonpayable",
      "type": "constructor"
    },
    {
      "inputs": [],
      "name": "InvalidAddress",
      "type": "error"
    },
    {
      "inputs": [],
      "name": "InvalidNonce",
      "type": "error"
    },
    {
      "inputs": [],
      "name": "InvalidPercentages",
      "type": "error"
    },
    {
      "inputs": [],
      "name": "InvalidTokenAmount",
      "type": "error"
    },
    {
      "inputs": [],
      "name": "NotEnoughValue",
      "type": "error"
    },
    {
      "inputs": [],
      "name": "UnauthorisedTx",
      "type": "error"
    },
    {
      "inputs": [],
      "name": "ValueTransferFailed",
      "type": "error"
    },
    {
      "anonymous": false,
      "inputs": [
        {
          "indexed": true,
          "internalType": "address",
          "name": "owner",
          "type": "address"
        },
        {
          "indexed": true,
          "internalType": "address",
          "name": "approved",
          "type": "address"
        },
        {
          "indexed": true,
          "internalType": "uint256",
          "name": "tokenId",
          "type": "uint256"
        }
      ],
      "name": "Approval",
      "type": "event"
    },
    {
      "anonymous": false,
      "inputs": [
        {
          "indexed": true,
          "internalType": "address",
          "name": "owner",
          "type": "address"
        },
        {
          "indexed": true,
          "internalType": "address",
          "name": "operator",
          "type": "address"
        },
        {
          "indexed": false,
          "internalType": "bool",
          "name": "approved",
          "type": "bool"
        }
      ],
      "name": "ApprovalForAll",
      "type": "event"
    },
    {
      "anonymous": false,
      "inputs": [
        {
          "indexed": false,
          "internalType": "uint256",
          "name": "_tokenId",
          "type": "uint256"
        },
        {
          "indexed": false,
          "internalType": "string",
          "name": "args",
          "type": "string"
        }
      ],
      "name": "AssetMinted",
      "type": "event"
    },
    {
      "anonymous": false,
      "inputs": [
        {
          "indexed": false,
          "internalType": "uint256[]",
          "name": "_tokenIds",
          "type": "uint256[]"
        },
        {
          "indexed": false,
          "internalType": "string",
          "name": "args",
          "type": "string"
        }
      ],
      "name": "BundleMinted",
      "type": "event"
    },
    {
      "anonymous": false,
      "inputs": [
        {
          "indexed": false,
          "internalType": "string",
          "name": "newURI",
          "type": "string"
        }
      ],
      "name": "NewBaseURISet",
      "type": "event"
    },
    {
      "anonymous": false,
      "inputs": [
        {
          "indexed": false,
          "internalType": "address",
          "name": "newDao",
          "type": "address"
        },
        {
          "indexed": false,
          "internalType": "address",
          "name": "liquidity",
          "type": "address"
        }
      ],
      "name": "NewReceiversSet",
      "type": "event"
    },
    {
      "anonymous": false,
      "inputs": [
        {
          "indexed": false,
          "internalType": "uint256",
          "name": "newLiquidityShare",
          "type": "uint256"
        },
        {
          "indexed": false,
          "internalType": "uint256",
          "name": "newDaoShare",
          "type": "uint256"
        }
      ],
      "name": "NewSharesSet",
      "type": "event"
    },
    {
      "anonymous": false,
      "inputs": [
        {
          "indexed": false,
          "internalType": "address",
          "name": "verifier",
          "type": "address"
        }
      ],
      "name": "NewVerifierSet",
      "type": "event"
    },
    {
      "anonymous": false,
      "inputs": [
        {
          "indexed": false,
          "internalType": "address",
          "name": "payToken",
          "type": "address"
        },
        {
          "indexed": false,
          "internalType": "bool",
          "name": "status",
          "type": "bool"
        }
      ],
      "name": "PayTokenStatusUpdated",
      "type": "event"
    },
    {
      "anonymous": false,
      "inputs": [
        {
          "indexed": false,
          "internalType": "address",
          "name": "newPriceFeed",
          "type": "address"
        }
      ],
      "name": "PriceFeedUpdated",
      "type": "event"
    },
    {
      "anonymous": false,
      "inputs": [
        {
          "indexed": true,
          "internalType": "bytes32",
          "name": "role",
          "type": "bytes32"
        },
        {
          "indexed": true,
          "internalType": "bytes32",
          "name": "previousAdminRole",
          "type": "bytes32"
        },
        {
          "indexed": true,
          "internalType": "bytes32",
          "name": "newAdminRole",
          "type": "bytes32"
        }
      ],
      "name": "RoleAdminChanged",
      "type": "event"
    },
    {
      "anonymous": false,
      "inputs": [
        {
          "indexed": true,
          "internalType": "bytes32",
          "name": "role",
          "type": "bytes32"
        },
        {
          "indexed": true,
          "internalType": "address",
          "name": "account",
          "type": "address"
        },
        {
          "indexed": true,
          "internalType": "address",
          "name": "sender",
          "type": "address"
        }
      ],
      "name": "RoleGranted",
      "type": "event"
    },
    {
      "anonymous": false,
      "inputs": [
        {
          "indexed": true,
          "internalType": "bytes32",
          "name": "role",
          "type": "bytes32"
        },
        {
          "indexed": true,
          "internalType": "address",
          "name": "account",
          "type": "address"
        },
        {
          "indexed": true,
          "internalType": "address",
          "name": "sender",
          "type": "address"
        }
      ],
      "name": "RoleRevoked",
      "type": "event"
    },
    {
      "anonymous": false,
      "inputs": [
        {
          "indexed": true,
          "internalType": "address",
          "name": "from",
          "type": "address"
        },
        {
          "indexed": true,
          "internalType": "address",
          "name": "to",
          "type": "address"
        },
        {
          "indexed": true,
          "internalType": "uint256",
          "name": "tokenId",
          "type": "uint256"
        }
      ],
      "name": "Transfer",
      "type": "event"
    },
    {
      "inputs": [],
      "name": "DEFAULT_ADMIN_ROLE",
      "outputs": [
        {
          "internalType": "bytes32",
          "name": "",
          "type": "bytes32"
        }
      ],
      "stateMutability": "view",
      "type": "function"
    },
    {
      "inputs": [
        {
          "internalType": "address",
          "name": "to",
          "type": "address"
        },
        {
          "internalType": "uint256",
          "name": "tokenId",
          "type": "uint256"
        }
      ],
      "name": "approve",
      "outputs": [],
      "stateMutability": "nonpayable",
      "type": "function"
    },
    {
      "inputs": [
        {
          "internalType": "address",
          "name": "owner",
          "type": "address"
        }
      ],
      "name": "balanceOf",
      "outputs": [
        {
          "internalType": "uint256",
          "name": "",
          "type": "uint256"
        }
      ],
      "stateMutability": "view",
      "type": "function"
    },
    {
      "inputs": [
        {
          "internalType": "bool",
          "name": "_free",
          "type": "bool"
        },
        {
          "internalType": "address",
          "name": "_payToken",
          "type": "address"
        },
        {
          "internalType": "uint256",
          "name": "_nftPrice",
          "type": "uint256"
        },
        {
          "internalType": "uint256",
          "name": "_nonce",
          "type": "uint256"
        },
        {
          "internalType": "uint64",
          "name": "_blockDeadline",
          "type": "uint64"
        },
        {
          "internalType": "bytes",
          "name": "_sig",
          "type": "bytes"
        },
        {
          "internalType": "string",
          "name": "_args",
          "type": "string"
        },
        {
          "internalType": "uint256",
          "name": "_tokenAmount",
          "type": "uint256"
        }
      ],
      "name": "bundleMint",
      "outputs": [],
      "stateMutability": "payable",
      "type": "function"
    },
    {
      "inputs": [],
      "name": "daoSharePercentage",
      "outputs": [
        {
          "internalType": "uint256",
          "name": "",
          "type": "uint256"
        }
      ],
      "stateMutability": "view",
      "type": "function"
    },
    {
      "inputs": [
        {
          "internalType": "address",
          "name": "account",
          "type": "address"
        }
      ],
      "name": "getAllTokensByOwner",
      "outputs": [
        {
          "internalType": "uint256[]",
          "name": "",
          "type": "uint256[]"
        }
      ],
      "stateMutability": "view",
      "type": "function"
    },
    {
      "inputs": [
        {
          "internalType": "uint256",
          "name": "tokenId",
          "type": "uint256"
        }
      ],
      "name": "getApproved",
      "outputs": [
        {
          "internalType": "address",
          "name": "",
          "type": "address"
        }
      ],
      "stateMutability": "view",
      "type": "function"
    },
    {
      "inputs": [
        {
          "internalType": "bytes32",
          "name": "role",
          "type": "bytes32"
        }
      ],
      "name": "getRoleAdmin",
      "outputs": [
        {
          "internalType": "bytes32",
          "name": "",
          "type": "bytes32"
        }
      ],
      "stateMutability": "view",
      "type": "function"
    },
    {
      "inputs": [
        {
          "internalType": "bytes32",
          "name": "role",
          "type": "bytes32"
        },
        {
          "internalType": "address",
          "name": "account",
          "type": "address"
        }
      ],
      "name": "grantRole",
      "outputs": [],
      "stateMutability": "nonpayable",
      "type": "function"
    },
    {
      "inputs": [
        {
          "internalType": "bytes32",
          "name": "role",
          "type": "bytes32"
        },
        {
          "internalType": "address",
          "name": "account",
          "type": "address"
        }
      ],
      "name": "hasRole",
      "outputs": [
        {
          "internalType": "bool",
          "name": "",
          "type": "bool"
        }
      ],
      "stateMutability": "view",
      "type": "function"
    },
    {
      "inputs": [
        {
          "internalType": "address",
          "name": "owner",
          "type": "address"
        },
        {
          "internalType": "address",
          "name": "operator",
          "type": "address"
        }
      ],
      "name": "isApprovedForAll",
      "outputs": [
        {
          "internalType": "bool",
          "name": "",
          "type": "bool"
        }
      ],
      "stateMutability": "view",
      "type": "function"
    },
    {
      "inputs": [],
      "name": "liquiditySharePercentage",
      "outputs": [
        {
          "internalType": "uint256",
          "name": "",
          "type": "uint256"
        }
      ],
      "stateMutability": "view",
      "type": "function"
    },
    {
      "inputs": [
        {
          "internalType": "bool",
          "name": "_free",
          "type": "bool"
        },
        {
          "internalType": "address",
          "name": "_payToken",
          "type": "address"
        },
        {
          "internalType": "uint256",
          "name": "_nftPrice",
          "type": "uint256"
        },
        {
          "internalType": "uint256",
          "name": "_nonce",
          "type": "uint256"
        },
        {
          "internalType": "uint64",
          "name": "_blockDeadline",
          "type": "uint64"
        },
        {
          "internalType": "bytes",
          "name": "_sig",
          "type": "bytes"
        },
        {
          "internalType": "string",
          "name": "_args",
          "type": "string"
        }
      ],
      "name": "mint",
      "outputs": [],
      "stateMutability": "payable",
      "type": "function"
    },
    {
      "inputs": [],
      "name": "name",
      "outputs": [
        {
          "internalType": "string",
          "name": "",
          "type": "string"
        }
      ],
      "stateMutability": "view",
      "type": "function"
    },
    {
      "inputs": [
        {
          "internalType": "uint256",
          "name": "tokenId",
          "type": "uint256"
        }
      ],
      "name": "ownerOf",
      "outputs": [
        {
          "internalType": "address",
          "name": "",
          "type": "address"
        }
      ],
      "stateMutability": "view",
      "type": "function"
    },
    {
      "inputs": [
        {
          "internalType": "bytes32",
          "name": "role",
          "type": "bytes32"
        },
        {
          "internalType": "address",
          "name": "account",
          "type": "address"
        }
      ],
      "name": "renounceRole",
      "outputs": [],
      "stateMutability": "nonpayable",
      "type": "function"
    },
    {
      "inputs": [
        {
          "internalType": "bytes32",
          "name": "role",
          "type": "bytes32"
        },
        {
          "internalType": "address",
          "name": "account",
          "type": "address"
        }
      ],
      "name": "revokeRole",
      "outputs": [],
      "stateMutability": "nonpayable",
      "type": "function"
    },
    {
      "inputs": [
        {
          "internalType": "address",
          "name": "from",
          "type": "address"
        },
        {
          "internalType": "address",
          "name": "to",
          "type": "address"
        },
        {
          "internalType": "uint256",
          "name": "tokenId",
          "type": "uint256"
        }
      ],
      "name": "safeTransferFrom",
      "outputs": [],
      "stateMutability": "nonpayable",
      "type": "function"
    },
    {
      "inputs": [
        {
          "internalType": "address",
          "name": "from",
          "type": "address"
        },
        {
          "internalType": "address",
          "name": "to",
          "type": "address"
        },
        {
          "internalType": "uint256",
          "name": "tokenId",
          "type": "uint256"
        },
        {
          "internalType": "bytes",
          "name": "data",
          "type": "bytes"
        }
      ],
      "name": "safeTransferFrom",
      "outputs": [],
      "stateMutability": "nonpayable",
      "type": "function"
    },
    {
      "inputs": [
        {
          "internalType": "address",
          "name": "operator",
          "type": "address"
        },
        {
          "internalType": "bool",
          "name": "approved",
          "type": "bool"
        }
      ],
      "name": "setApprovalForAll",
      "outputs": [],
      "stateMutability": "nonpayable",
      "type": "function"
    },
    {
      "inputs": [
        {
          "internalType": "string",
          "name": "_newURI",
          "type": "string"
        }
      ],
      "name": "setBaseURI",
      "outputs": [],
      "stateMutability": "nonpayable",
      "type": "function"
    },
    {
      "inputs": [
        {
          "internalType": "address",
          "name": "_payToken",
          "type": "address"
        },
        {
          "internalType": "bool",
          "name": "_status",
          "type": "bool"
        }
      ],
      "name": "setPayTokenStatus",
      "outputs": [],
      "stateMutability": "nonpayable",
      "type": "function"
    },
    {
      "inputs": [
        {
          "internalType": "address",
          "name": "_dao",
          "type": "address"
        },
        {
          "internalType": "address",
          "name": "_liquidity",
          "type": "address"
        }
      ],
      "name": "setReceivers",
      "outputs": [],
      "stateMutability": "nonpayable",
      "type": "function"
    },
    {
      "inputs": [
        {
          "internalType": "uint256",
          "name": "_liquidityShare",
          "type": "uint256"
        },
        {
          "internalType": "uint256",
          "name": "_daoShare",
          "type": "uint256"
        }
      ],
      "name": "setShare",
      "outputs": [],
      "stateMutability": "nonpayable",
      "type": "function"
    },
    {
      "inputs": [
        {
          "internalType": "address",
          "name": "_verifier",
          "type": "address"
        }
      ],
      "name": "setVerifier",
      "outputs": [],
      "stateMutability": "nonpayable",
      "type": "function"
    },
    {
      "inputs": [
        {
          "internalType": "bytes4",
          "name": "interfaceId",
          "type": "bytes4"
        }
      ],
      "name": "supportsInterface",
      "outputs": [
        {
          "internalType": "bool",
          "name": "",
          "type": "bool"
        }
      ],
      "stateMutability": "view",
      "type": "function"
    },
    {
      "inputs": [],
      "name": "symbol",
      "outputs": [
        {
          "internalType": "string",
          "name": "",
          "type": "string"
        }
      ],
      "stateMutability": "view",
      "type": "function"
    },
    {
      "inputs": [
        {
          "internalType": "uint256",
          "name": "index",
          "type": "uint256"
        }
      ],
      "name": "tokenByIndex",
      "outputs": [
        {
          "internalType": "uint256",
          "name": "",
          "type": "uint256"
        }
      ],
      "stateMutability": "view",
      "type": "function"
    },
    {
      "inputs": [
        {
          "internalType": "address",
          "name": "owner",
          "type": "address"
        },
        {
          "internalType": "uint256",
          "name": "index",
          "type": "uint256"
        }
      ],
      "name": "tokenOfOwnerByIndex",
      "outputs": [
        {
          "internalType": "uint256",
          "name": "",
          "type": "uint256"
        }
      ],
      "stateMutability": "view",
      "type": "function"
    },
    {
      "inputs": [
        {
          "internalType": "uint256",
          "name": "tokenId",
          "type": "uint256"
        }
      ],
      "name": "tokenURI",
      "outputs": [
        {
          "internalType": "string",
          "name": "",
          "type": "string"
        }
      ],
      "stateMutability": "view",
      "type": "function"
    },
    {
      "inputs": [],
      "name": "totalSupply",
      "outputs": [
        {
          "internalType": "uint256",
          "name": "",
          "type": "uint256"
        }
      ],
      "stateMutability": "view",
      "type": "function"
    },
    {
      "inputs": [
        {
          "internalType": "address",
          "name": "from",
          "type": "address"
        },
        {
          "internalType": "address",
          "name": "to",
          "type": "address"
        },
        {
          "internalType": "uint256",
          "name": "tokenId",
          "type": "uint256"
        }
      ],
      "name": "transferFrom",
      "outputs": [],
      "stateMutability": "nonpayable",
      "type": "function"
    },
    {
      "inputs": [
        {
          "internalType": "address",
          "name": "_newPriceFeed",
          "type": "address"
        }
      ],
      "name": "updatePriceFeed",
      "outputs": [],
      "stateMutability": "nonpayable",
      "type": "function"
    },
    {
      "inputs": [
        {
          "internalType": "address",
          "name": "_token",
          "type": "address"
        }
      ],
      "name": "withdrawOwner",
      "outputs": [],
      "stateMutability": "nonpayable",
      "type": "function"
    }
  ],
  "transactionHash": "0x4dc213ee83567d956dc0ddba50f3853ed068016032ef5542f89429fabc67a036",
  "args": [
    "0xA4E179a1522EBcae512Bd8df5FC986C444e8e11C",
    "0xA4E179a1522EBcae512Bd8df5FC986C444e8e11C",
    "0xA4E179a1522EBcae512Bd8df5FC986C444e8e11C",
    "0x0567f2323251f0aab15c8dfb1967e4e8a7d42aee",
    "Corners of Space",
    "CoS",
    "Lol-Kek"
  ],
  "numDeployments": 1,
  "solcInputHash": "88acad679822b96032e369371db990b6",
  "bytecode": "0x60806040523480156200001157600080fd5b506040516200699b3803806200699b8339818101604052810190620000379190620005f2565b828281600090816200004a91906200094d565b5080600190816200005c91906200094d565b505050620000917f6ce44ac19daa541a3cad4667c612cff8964428a20ce88eca8a6022803dbffc3287620001b660201b60201c565b620000e37fdf8b4c520ffe197c5343c6f5aec59570151ef9a492f2c624fd45ddde6135ec427f6ce44ac19daa541a3cad4667c612cff8964428a20ce88eca8a6022803dbffc32620001cc60201b60201c565b620001157fdf8b4c520ffe197c5343c6f5aec59570151ef9a492f2c624fd45ddde6135ec4288620001b660201b60201c565b80601190816200012691906200094d565b5084600f60006101000a81548173ffffffffffffffffffffffffffffffffffffffff021916908373ffffffffffffffffffffffffffffffffffffffff16021790555083600e60006101000a81548173ffffffffffffffffffffffffffffffffffffffff021916908373ffffffffffffffffffffffffffffffffffffffff1602179055505050505050505062000a34565b620001c882826200023060201b60201c565b5050565b6000620001df836200032260201b60201c565b905081600a6000858152602001908152602001600020600101819055508181847fbd79b86ffe0ab8e8776151514217cd7cacd52c909f66475c3af44e129f0b00ff60405160405180910390a4505050565b6200024282826200034260201b60201c565b6200031e576001600a600084815260200190815260200160002060000160008373ffffffffffffffffffffffffffffffffffffffff1673ffffffffffffffffffffffffffffffffffffffff16815260200190815260200160002060006101000a81548160ff021916908315150217905550620002c3620003ad60201b60201c565b73ffffffffffffffffffffffffffffffffffffffff168173ffffffffffffffffffffffffffffffffffffffff16837f2f8788117e7eff1d82e926ec794901d17c78024a50270940304540a733656f0d60405160405180910390a45b5050565b6000600a6000838152602001908152602001600020600101549050919050565b6000600a600084815260200190815260200160002060000160008373ffffffffffffffffffffffffffffffffffffffff1673ffffffffffffffffffffffffffffffffffffffff16815260200190815260200160002060009054906101000a900460ff16905092915050565b600033905090565b6000604051905090565b600080fd5b600080fd5b600073ffffffffffffffffffffffffffffffffffffffff82169050919050565b6000620003f682620003c9565b9050919050565b6200040881620003e9565b81146200041457600080fd5b50565b6000815190506200042881620003fd565b92915050565b60006200043b82620003e9565b9050919050565b6200044d816200042e565b81146200045957600080fd5b50565b6000815190506200046d8162000442565b92915050565b600080fd5b600080fd5b6000601f19601f8301169050919050565b7f4e487b7100000000000000000000000000000000000000000000000000000000600052604160045260246000fd5b620004c8826200047d565b810181811067ffffffffffffffff82111715620004ea57620004e96200048e565b5b80604052505050565b6000620004ff620003b5565b90506200050d8282620004bd565b919050565b600067ffffffffffffffff82111562000530576200052f6200048e565b5b6200053b826200047d565b9050602081019050919050565b60005b83811015620005685780820151818401526020810190506200054b565b60008484015250505050565b60006200058b620005858462000512565b620004f3565b905082815260208101848484011115620005aa57620005a962000478565b5b620005b784828562000548565b509392505050565b600082601f830112620005d757620005d662000473565b5b8151620005e984826020860162000574565b91505092915050565b600080600080600080600060e0888a031215620006145762000613620003bf565b5b6000620006248a828b0162000417565b9750506020620006378a828b0162000417565b96505060406200064a8a828b0162000417565b95505060606200065d8a828b016200045c565b945050608088015167ffffffffffffffff811115620006815762000680620003c4565b5b6200068f8a828b01620005bf565b93505060a088015167ffffffffffffffff811115620006b357620006b2620003c4565b5b620006c18a828b01620005bf565b92505060c088015167ffffffffffffffff811115620006e557620006e4620003c4565b5b620006f38a828b01620005bf565b91505092959891949750929550565b600081519050919050565b7f4e487b7100000000000000000000000000000000000000000000000000000000600052602260045260246000fd5b600060028204905060018216806200075557607f821691505b6020821081036200076b576200076a6200070d565b5b50919050565b60008190508160005260206000209050919050565b60006020601f8301049050919050565b600082821b905092915050565b600060088302620007d57fffffffffffffffffffffffffffffffffffffffffffffffffffffffffffffffff8262000796565b620007e1868362000796565b95508019841693508086168417925050509392505050565b6000819050919050565b6000819050919050565b60006200082e620008286200082284620007f9565b62000803565b620007f9565b9050919050565b6000819050919050565b6200084a836200080d565b62000862620008598262000835565b848454620007a3565b825550505050565b600090565b620008796200086a565b620008868184846200083f565b505050565b5b81811015620008ae57620008a26000826200086f565b6001810190506200088c565b5050565b601f821115620008fd57620008c78162000771565b620008d28462000786565b81016020851015620008e2578190505b620008fa620008f18562000786565b8301826200088b565b50505b505050565b600082821c905092915050565b6000620009226000198460080262000902565b1980831691505092915050565b60006200093d83836200090f565b9150826002028217905092915050565b620009588262000702565b67ffffffffffffffff8111156200097457620009736200048e565b5b6200098082546200073c565b6200098d828285620008b2565b600060209050601f831160018114620009c55760008415620009b0578287015190505b620009bc85826200092f565b86555062000a2c565b601f198416620009d58662000771565b60005b82811015620009ff57848901518255600182019150602085019450602081019050620009d8565b8683101562000a1f578489015162000a1b601f8916826200090f565b8355505b6001600288020188555050505b505050505050565b615f578062000a446000396000f3fe6080604052600436106101f95760003560e01c80636bf8e9cc1161010d578063ad4fca5d116100a0578063c93cd7da1161006f578063c93cd7da14610747578063ce0fc88f14610772578063d547741f1461079b578063e985e9c5146107c4578063e9fda7d414610801576101f9565b8063ad4fca5d1461069c578063b17b8b6f146106c5578063b88d4fde146106e1578063c87b56dd1461070a576101f9565b806395877f78116100dc57806395877f78146105f457806395d89b411461061d578063a217fddf14610648578063a22cb46514610673576101f9565b80636bf8e9cc1461053557806370a082311461055e57806391d148541461059b578063920d94bd146105d8576101f9565b80632f745c59116101905780634f6ccce71161015f5780634f6ccce71461043e5780635437988d1461047b57806355f804b3146104a4578063619fa68a146104cd5780636352211e146104f8576101f9565b80632f745c591461038657806336568abe146103c35780633f0cea3f146103ec57806342842e0e14610415576101f9565b806318160ddd116101cc57806318160ddd146102cc57806323b872dd146102f7578063248a9ca3146103205780632f2ff15d1461035d576101f9565b806301ffc9a7146101fe57806306fdde031461023b578063081812fc14610266578063095ea7b3146102a3575b600080fd5b34801561020a57600080fd5b5061022560048036038101906102209190613bb7565b61083e565b6040516102329190613bff565b60405180910390f35b34801561024757600080fd5b506102506108b8565b60405161025d9190613caa565b60405180910390f35b34801561027257600080fd5b5061028d60048036038101906102889190613d02565b61094a565b60405161029a9190613d70565b60405180910390f35b3480156102af57600080fd5b506102ca60048036038101906102c59190613db7565b610990565b005b3480156102d857600080fd5b506102e1610aa7565b6040516102ee9190613e06565b60405180910390f35b34801561030357600080fd5b5061031e60048036038101906103199190613e21565b610ab4565b005b34801561032c57600080fd5b5061034760048036038101906103429190613eaa565b610b14565b6040516103549190613ee6565b60405180910390f35b34801561036957600080fd5b50610384600480360381019061037f9190613f01565b610b34565b005b34801561039257600080fd5b506103ad60048036038101906103a89190613db7565b610b55565b6040516103ba9190613e06565b60405180910390f35b3480156103cf57600080fd5b506103ea60048036038101906103e59190613f01565b610bfa565b005b3480156103f857600080fd5b50610413600480360381019061040e9190613f41565b610c7d565b005b34801561042157600080fd5b5061043c60048036038101906104379190613e21565b610e2d565b005b34801561044a57600080fd5b5061046560048036038101906104609190613d02565b610e4d565b6040516104729190613e06565b60405180910390f35b34801561048757600080fd5b506104a2600480360381019061049d9190613f41565b610ebe565b005b3480156104b057600080fd5b506104cb60048036038101906104c691906140a3565b610fee565b005b3480156104d957600080fd5b506104e2611063565b6040516104ef9190613e06565b60405180910390f35b34801561050457600080fd5b5061051f600480360381019061051a9190613d02565b611069565b60405161052c9190613d70565b60405180910390f35b34801561054157600080fd5b5061055c600480360381019061055791906140ec565b6110ef565b005b34801561056a57600080fd5b5061058560048036038101906105809190613f41565b61117f565b6040516105929190613e06565b60405180910390f35b3480156105a757600080fd5b506105c260048036038101906105bd9190613f01565b611236565b6040516105cf9190613bff565b60405180910390f35b6105f260048036038101906105ed919061424e565b6112a1565b005b34801561060057600080fd5b5061061b60048036038101906106169190613f41565b61140a565b005b34801561062957600080fd5b506106326114ed565b60405161063f9190613caa565b60405180910390f35b34801561065457600080fd5b5061065d61157f565b60405161066a9190613ee6565b60405180910390f35b34801561067f57600080fd5b5061069a60048036038101906106959190614330565b611586565b005b3480156106a857600080fd5b506106c360048036038101906106be9190614330565b61159c565b005b6106df60048036038101906106da9190614370565b61165b565b005b3480156106ed57600080fd5b5061070860048036038101906107039190614508565b611842565b005b34801561071657600080fd5b50610731600480360381019061072c9190613d02565b6118a4565b60405161073e9190613caa565b60405180910390f35b34801561075357600080fd5b5061075c611944565b6040516107699190613e06565b60405180910390f35b34801561077e57600080fd5b506107996004803603810190610794919061458b565b61194a565b005b3480156107a757600080fd5b506107c260048036038101906107bd9190613f01565b611a34565b005b3480156107d057600080fd5b506107eb60048036038101906107e6919061458b565b611a55565b6040516107f89190613bff565b60405180910390f35b34801561080d57600080fd5b5061082860048036038101906108239190613f41565b611ae9565b6040516108359190614689565b60405180910390f35b60007f780e9d63000000000000000000000000000000000000000000000000000000007bffffffffffffffffffffffffffffffffffffffffffffffffffffffff1916827bffffffffffffffffffffffffffffffffffffffffffffffffffffffff191614806108b157506108b082611b97565b5b9050919050565b6060600080546108c7906146da565b80601f01602080910402602001604051908101604052809291908181526020018280546108f3906146da565b80156109405780601f1061091557610100808354040283529160200191610940565b820191906000526020600020905b81548152906001019060200180831161092357829003601f168201915b5050505050905090565b600061095582611c11565b6004600083815260200190815260200160002060009054906101000a900473ffffffffffffffffffffffffffffffffffffffff169050919050565b600061099b82611069565b90508073ffffffffffffffffffffffffffffffffffffffff168373ffffffffffffffffffffffffffffffffffffffff1603610a0b576040517f08c379a0000000000000000000000000000000000000000000000000000000008152600401610a029061477d565b60405180910390fd5b8073ffffffffffffffffffffffffffffffffffffffff16610a2a611c5c565b73ffffffffffffffffffffffffffffffffffffffff161480610a595750610a5881610a53611c5c565b611a55565b5b610a98576040517f08c379a0000000000000000000000000000000000000000000000000000000008152600401610a8f9061480f565b60405180910390fd5b610aa28383611c64565b505050565b6000600880549050905090565b610ac5610abf611c5c565b82611d1d565b610b04576040517f08c379a0000000000000000000000000000000000000000000000000000000008152600401610afb906148a1565b60405180910390fd5b610b0f838383611db2565b505050565b6000600a6000838152602001908152602001600020600101549050919050565b610b3d82610b14565b610b46816120ab565b610b5083836120bf565b505050565b6000610b608361117f565b8210610ba1576040517f08c379a0000000000000000000000000000000000000000000000000000000008152600401610b9890614933565b60405180910390fd5b600660008473ffffffffffffffffffffffffffffffffffffffff1673ffffffffffffffffffffffffffffffffffffffff168152602001908152602001600020600083815260200190815260200160002054905092915050565b610c02611c5c565b73ffffffffffffffffffffffffffffffffffffffff168173ffffffffffffffffffffffffffffffffffffffff1614610c6f576040517f08c379a0000000000000000000000000000000000000000000000000000000008152600401610c66906149c5565b60405180910390fd5b610c7982826121a0565b5050565b7fdf8b4c520ffe197c5343c6f5aec59570151ef9a492f2c624fd45ddde6135ec42610ca7816120ab565b600073ffffffffffffffffffffffffffffffffffffffff168273ffffffffffffffffffffffffffffffffffffffff1603610d845760003373ffffffffffffffffffffffffffffffffffffffff1647604051610d0190614a16565b60006040518083038185875af1925050503d8060008114610d3e576040519150601f19603f3d011682016040523d82523d6000602084013e610d43565b606091505b5050905080610d7e576040517fdd857fd000000000000000000000000000000000000000000000000000000000815260040160405180910390fd5b50610e29565b610e28338373ffffffffffffffffffffffffffffffffffffffff166370a08231306040518263ffffffff1660e01b8152600401610dc19190613d70565b602060405180830381865afa158015610dde573d6000803e3d6000fd5b505050506040513d601f19601f82011682018060405250810190610e029190614a40565b8473ffffffffffffffffffffffffffffffffffffffff166122829092919063ffffffff16565b5b5050565b610e4883838360405180602001604052806000815250611842565b505050565b6000610e57610aa7565b8210610e98576040517f08c379a0000000000000000000000000000000000000000000000000000000008152600401610e8f90614adf565b60405180910390fd5b60088281548110610eac57610eab614aff565b5b90600052602060002001549050919050565b7fdf8b4c520ffe197c5343c6f5aec59570151ef9a492f2c624fd45ddde6135ec42610ee8816120ab565b81600073ffffffffffffffffffffffffffffffffffffffff168173ffffffffffffffffffffffffffffffffffffffff1603610f4f576040517fe6c4247b00000000000000000000000000000000000000000000000000000000815260040160405180910390fd5b82600f60006101000a81548173ffffffffffffffffffffffffffffffffffffffff021916908373ffffffffffffffffffffffffffffffffffffffff1602179055507f2a18e613d62e97d36339f9a78c87c2469b4a296f817284ffc4caa5ab6bde9f0a600f60009054906101000a900473ffffffffffffffffffffffffffffffffffffffff16604051610fe19190613d70565b60405180910390a1505050565b7fdf8b4c520ffe197c5343c6f5aec59570151ef9a492f2c624fd45ddde6135ec42611018816120ab565b81601190816110279190614cda565b507fcb8c11da303386100622594a439c92fabb7c4209c757f555a54c8b8e4bb8227e826040516110579190613caa565b60405180910390a15050565b60125481565b60008061107583612308565b9050600073ffffffffffffffffffffffffffffffffffffffff168173ffffffffffffffffffffffffffffffffffffffff16036110e6576040517f08c379a00000000000000000000000000000000000000000000000000000000081526004016110dd90614df8565b60405180910390fd5b80915050919050565b606481836110fd9190614e47565b14611134576040517f6d2fd3c900000000000000000000000000000000000000000000000000000000815260040160405180910390fd5b81601381905550806012819055507f26a7762fbcebc3ef3ac84096c8e9d1cbabe1cfe8b1180d44a288c057ace5cee18282604051611173929190614e7b565b60405180910390a15050565b60008073ffffffffffffffffffffffffffffffffffffffff168273ffffffffffffffffffffffffffffffffffffffff16036111ef576040517f08c379a00000000000000000000000000000000000000000000000000000000081526004016111e690614f16565b60405180910390fd5b600360008373ffffffffffffffffffffffffffffffffffffffff1673ffffffffffffffffffffffffffffffffffffffff168152602001908152602001600020549050919050565b6000600a600084815260200190815260200160002060000160008373ffffffffffffffffffffffffffffffffffffffff1673ffffffffffffffffffffffffffffffffffffffff16815260200190815260200160002060009054906101000a900460ff16905092915050565b6112aa86612345565b60006112e7338b8a8a8a88886040516020016112cc979695949392919061504d565b604051602081830303815290604052805190602001206123cc565b9050600f60009054906101000a900473ffffffffffffffffffffffffffffffffffffffff1673ffffffffffffffffffffffffffffffffffffffff1661132d8287876123fc565b73ffffffffffffffffffffffffffffffffffffffff161461137a576040517fae9a50e800000000000000000000000000000000000000000000000000000000815260040160405180910390fd5b8961138d5761138c3360018b8b6124cd565b5b6000600160105461139e9190614e47565b9050601060008154809291906113b3906150bb565b91905055506113c233826128e4565b7fe6320c52150eff05c0bbccfba4d78d677d589c07fd053c2b2320a83c29811d3c8185856040516113f593929190615130565b60405180910390a15050505050505050505050565b80600073ffffffffffffffffffffffffffffffffffffffff168173ffffffffffffffffffffffffffffffffffffffff1603611471576040517fe6c4247b00000000000000000000000000000000000000000000000000000000815260040160405180910390fd5b81600e60006101000a81548173ffffffffffffffffffffffffffffffffffffffff021916908373ffffffffffffffffffffffffffffffffffffffff1602179055507fe5b20b8497e4f3e2435ef9c20e2e26b47497ee13745ce1c681ad6640653119e6826040516114e19190613d70565b60405180910390a15050565b6060600180546114fc906146da565b80601f0160208091040260200160405190810160405280929190818152602001828054611528906146da565b80156115755780601f1061154a57610100808354040283529160200191611575565b820191906000526020600020905b81548152906001019060200180831161155857829003601f168201915b5050505050905090565b6000801b81565b611598611591611c5c565b8383612902565b5050565b7fdf8b4c520ffe197c5343c6f5aec59570151ef9a492f2c624fd45ddde6135ec426115c6816120ab565b81600b60008573ffffffffffffffffffffffffffffffffffffffff1673ffffffffffffffffffffffffffffffffffffffff16815260200190815260200160002060006101000a81548160ff0219169083151502179055507f1594515d5545f8205cc0d519c160b9ac13961314fa6da3289145ce896968f4e6838360405161164e929190615162565b60405180910390a1505050565b61166487612345565b60006116a3338c8b8b8b89898960405160200161168898979695949392919061518b565b604051602081830303815290604052805190602001206123cc565b9050600f60009054906101000a900473ffffffffffffffffffffffffffffffffffffffff1673ffffffffffffffffffffffffffffffffffffffff166116e98288886123fc565b73ffffffffffffffffffffffffffffffffffffffff1614611736576040517fae9a50e800000000000000000000000000000000000000000000000000000000815260040160405180910390fd5b8a6117485761174733838c8c6124cd565b5b606060005b838110156117be57600060016010546117669190614e47565b90506010600081548092919061177b906150bb565b919050555061178a33826128e4565b8083838151811061179e5761179d614aff565b5b6020026020010181815250505080806117b6906150bb565b91505061174d565b50600083036117f9576040517f2160733900000000000000000000000000000000000000000000000000000000815260040160405180910390fd5b7f51f68a2da2fdedb46e072dc17e66e23dfc1538c1efe0158b4afdd6b7947b08b281868660405161182c9392919061520a565b60405180910390a1505050505050505050505050565b61185361184d611c5c565b83611d1d565b611892576040517f08c379a0000000000000000000000000000000000000000000000000000000008152600401611889906148a1565b60405180910390fd5b61189e84848484612a6e565b50505050565b60606118af82612aca565b6118ee576040517f08c379a00000000000000000000000000000000000000000000000000000000081526004016118e5906152b5565b60405180910390fd5b6000601180546118fd906146da565b905011611919576040518060200160405280600081525061193d565b60118260405160200161192d929190615358565b6040516020818303038152906040525b9050919050565b60135481565b7fdf8b4c520ffe197c5343c6f5aec59570151ef9a492f2c624fd45ddde6135ec42611974816120ab565b82600d60006101000a81548173ffffffffffffffffffffffffffffffffffffffff021916908373ffffffffffffffffffffffffffffffffffffffff16021790555081600c60006101000a81548173ffffffffffffffffffffffffffffffffffffffff021916908373ffffffffffffffffffffffffffffffffffffffff1602179055507f95257d6df22d282dfadaab6fdb83a32c7db96359e589d7ffa9543bdb4cc18f368383604051611a27929190615380565b60405180910390a1505050565b611a3d82610b14565b611a46816120ab565b611a5083836121a0565b505050565b6000600560008473ffffffffffffffffffffffffffffffffffffffff1673ffffffffffffffffffffffffffffffffffffffff16815260200190815260200160002060008373ffffffffffffffffffffffffffffffffffffffff1673ffffffffffffffffffffffffffffffffffffffff16815260200190815260200160002060009054906101000a900460ff16905092915050565b60606000611af68361117f565b905060008167ffffffffffffffff811115611b1457611b13613f78565b5b604051908082528060200260200182016040528015611b425781602001602082028036833780820191505090505b50905060005b82811015611b8c57611b5a8582610b55565b828281518110611b6d57611b6c614aff565b5b6020026020010181815250508080611b84906150bb565b915050611b48565b508092505050919050565b60007f7965db0b000000000000000000000000000000000000000000000000000000007bffffffffffffffffffffffffffffffffffffffffffffffffffffffff1916827bffffffffffffffffffffffffffffffffffffffffffffffffffffffff19161480611c0a5750611c0982612b0b565b5b9050919050565b611c1a81612aca565b611c59576040517f08c379a0000000000000000000000000000000000000000000000000000000008152600401611c5090614df8565b60405180910390fd5b50565b600033905090565b816004600083815260200190815260200160002060006101000a81548173ffffffffffffffffffffffffffffffffffffffff021916908373ffffffffffffffffffffffffffffffffffffffff160217905550808273ffffffffffffffffffffffffffffffffffffffff16611cd783611069565b73ffffffffffffffffffffffffffffffffffffffff167f8c5be1e5ebec7d5bd14f71427d1e84f3dd0314c0f7b2291e5b200ac8c7c3b92560405160405180910390a45050565b600080611d2983611069565b90508073ffffffffffffffffffffffffffffffffffffffff168473ffffffffffffffffffffffffffffffffffffffff161480611d6b5750611d6a8185611a55565b5b80611da957508373ffffffffffffffffffffffffffffffffffffffff16611d918461094a565b73ffffffffffffffffffffffffffffffffffffffff16145b91505092915050565b8273ffffffffffffffffffffffffffffffffffffffff16611dd282611069565b73ffffffffffffffffffffffffffffffffffffffff1614611e28576040517f08c379a0000000000000000000000000000000000000000000000000000000008152600401611e1f9061541b565b60405180910390fd5b600073ffffffffffffffffffffffffffffffffffffffff168273ffffffffffffffffffffffffffffffffffffffff1603611e97576040517f08c379a0000000000000000000000000000000000000000000000000000000008152600401611e8e906154ad565b60405180910390fd5b611ea48383836001612b85565b8273ffffffffffffffffffffffffffffffffffffffff16611ec482611069565b73ffffffffffffffffffffffffffffffffffffffff1614611f1a576040517f08c379a0000000000000000000000000000000000000000000000000000000008152600401611f119061541b565b60405180910390fd5b6004600082815260200190815260200160002060006101000a81549073ffffffffffffffffffffffffffffffffffffffff02191690556001600360008573ffffffffffffffffffffffffffffffffffffffff1673ffffffffffffffffffffffffffffffffffffffff168152602001908152602001600020600082825403925050819055506001600360008473ffffffffffffffffffffffffffffffffffffffff1673ffffffffffffffffffffffffffffffffffffffff16815260200190815260200160002060008282540192505081905550816002600083815260200190815260200160002060006101000a81548173ffffffffffffffffffffffffffffffffffffffff021916908373ffffffffffffffffffffffffffffffffffffffff160217905550808273ffffffffffffffffffffffffffffffffffffffff168473ffffffffffffffffffffffffffffffffffffffff167fddf252ad1be2c89b69c2b068fc378daa952ba7f163c4a11628f55a4df523b3ef60405160405180910390a46120a68383836001612ce3565b505050565b6120bc816120b7611c5c565b612ce9565b50565b6120c98282611236565b61219c576001600a600084815260200190815260200160002060000160008373ffffffffffffffffffffffffffffffffffffffff1673ffffffffffffffffffffffffffffffffffffffff16815260200190815260200160002060006101000a81548160ff021916908315150217905550612141611c5c565b73ffffffffffffffffffffffffffffffffffffffff168173ffffffffffffffffffffffffffffffffffffffff16837f2f8788117e7eff1d82e926ec794901d17c78024a50270940304540a733656f0d60405160405180910390a45b5050565b6121aa8282611236565b1561227e576000600a600084815260200190815260200160002060000160008373ffffffffffffffffffffffffffffffffffffffff1673ffffffffffffffffffffffffffffffffffffffff16815260200190815260200160002060006101000a81548160ff021916908315150217905550612223611c5c565b73ffffffffffffffffffffffffffffffffffffffff168173ffffffffffffffffffffffffffffffffffffffff16837ff6391f5c32d9c69d2a47ea670b442974b53935d1edc7fd64eb21e047a839171b60405160405180910390a45b5050565b6123038363a9059cbb60e01b84846040516024016122a19291906154cd565b604051602081830303815290604052907bffffffffffffffffffffffffffffffffffffffffffffffffffffffff19166020820180517bffffffffffffffffffffffffffffffffffffffffffffffffffffffff8381831617835250505050612d6e565b505050565b60006002600083815260200190815260200160002060009054906101000a900473ffffffffffffffffffffffffffffffffffffffff169050919050565b6014600082815260200190815260200160002060009054906101000a900460ff161561239d576040517f756688fe00000000000000000000000000000000000000000000000000000000815260040160405180910390fd5b60016014600083815260200190815260200160002060006101000a81548160ff02191690831515021790555050565b6000816040516020016123df9190615563565b604051602081830303815290604052805190602001209050919050565b6000604051826041811461241b57604081146124355760009150612478565b604085013560001a60208301526040856040840137612478565b60208501358060ff1c601b01602084015260208660408501377f7fffffffffffffffffffffffffffffffffffffffffffffffffffffffffffffff81166060840152505b5080156124c5577f7fffffffffffffffffffffffffffffff5d576e7357a4501ddfe92f46681b20a1606082015110156124c457848152600080526020600060808360015afa5060005191505b5b509392505050565b600073ffffffffffffffffffffffffffffffffffffffff168273ffffffffffffffffffffffffffffffffffffffff16036127f7576000600e60009054906101000a900473ffffffffffffffffffffffffffffffffffffffff1673ffffffffffffffffffffffffffffffffffffffff1663feaf968c6040518163ffffffff1660e01b815260040160a060405180830381865afa158015612570573d6000803e3d6000fd5b505050506040513d601f19601f820116820180604052508101906125949190615601565b50505091505060008185846125a9919061567c565b6125b391906156ed565b9050803410156125ef576040517fe2f844a000000000000000000000000000000000000000000000000000000000815260040160405180910390fd5b84341015612632576040517f08c379a00000000000000000000000000000000000000000000000000000000081526004016126299061576a565b60405180910390fd5b6000600d60009054906101000a900473ffffffffffffffffffffffffffffffffffffffff1673ffffffffffffffffffffffffffffffffffffffff1660646012548461267d919061567c565b61268791906156ed565b60405161269390614a16565b60006040518083038185875af1925050503d80600081146126d0576040519150601f19603f3d011682016040523d82523d6000602084013e6126d5565b606091505b5050905080612710576040517fdd857fd000000000000000000000000000000000000000000000000000000000815260040160405180910390fd5b6000600c60009054906101000a900473ffffffffffffffffffffffffffffffffffffffff1673ffffffffffffffffffffffffffffffffffffffff1660646013548561275b919061567c565b61276591906156ed565b60405161277190614a16565b60006040518083038185875af1925050503d80600081146127ae576040519150601f19603f3d011682016040523d82523d6000602084013e6127b3565b606091505b50509050806127ee576040517fdd857fd000000000000000000000000000000000000000000000000000000000815260040160405180910390fd5b505050506128de565b61286a84600c60009054906101000a900473ffffffffffffffffffffffffffffffffffffffff168560648560135461282f919061567c565b61283991906156ed565b612843919061567c565b8573ffffffffffffffffffffffffffffffffffffffff16612e35909392919063ffffffff16565b6128dd84600d60009054906101000a900473ffffffffffffffffffffffffffffffffffffffff16856064856012546128a2919061567c565b6128ac91906156ed565b6128b6919061567c565b8573ffffffffffffffffffffffffffffffffffffffff16612e35909392919063ffffffff16565b5b50505050565b6128fe828260405180602001604052806000815250612ebe565b5050565b8173ffffffffffffffffffffffffffffffffffffffff168373ffffffffffffffffffffffffffffffffffffffff1603612970576040517f08c379a0000000000000000000000000000000000000000000000000000000008152600401612967906157d6565b60405180910390fd5b80600560008573ffffffffffffffffffffffffffffffffffffffff1673ffffffffffffffffffffffffffffffffffffffff16815260200190815260200160002060008473ffffffffffffffffffffffffffffffffffffffff1673ffffffffffffffffffffffffffffffffffffffff16815260200190815260200160002060006101000a81548160ff0219169083151502179055508173ffffffffffffffffffffffffffffffffffffffff168373ffffffffffffffffffffffffffffffffffffffff167f17307eab39ab6107e8899845ad3d59bd9653f200f220920489ca2b5937696c3183604051612a619190613bff565b60405180910390a3505050565b612a79848484611db2565b612a8584848484612f19565b612ac4576040517f08c379a0000000000000000000000000000000000000000000000000000000008152600401612abb90615868565b60405180910390fd5b50505050565b60008073ffffffffffffffffffffffffffffffffffffffff16612aec83612308565b73ffffffffffffffffffffffffffffffffffffffff1614159050919050565b60007f780e9d63000000000000000000000000000000000000000000000000000000007bffffffffffffffffffffffffffffffffffffffffffffffffffffffff1916827bffffffffffffffffffffffffffffffffffffffffffffffffffffffff19161480612b7e5750612b7d826130a0565b5b9050919050565b612b9184848484613182565b6001811115612bd5576040517f08c379a0000000000000000000000000000000000000000000000000000000008152600401612bcc906158fa565b60405180910390fd5b6000829050600073ffffffffffffffffffffffffffffffffffffffff168573ffffffffffffffffffffffffffffffffffffffff1603612c1c57612c1781613188565b612c5b565b8373ffffffffffffffffffffffffffffffffffffffff168573ffffffffffffffffffffffffffffffffffffffff1614612c5a57612c5985826131d1565b5b5b600073ffffffffffffffffffffffffffffffffffffffff168473ffffffffffffffffffffffffffffffffffffffff1603612c9d57612c988161333e565b612cdc565b8473ffffffffffffffffffffffffffffffffffffffff168473ffffffffffffffffffffffffffffffffffffffff1614612cdb57612cda848261340f565b5b5b5050505050565b50505050565b612cf38282611236565b612d6a57612d008161348e565b612d0e8360001c60206134bb565b604051602001612d1f9291906159e3565b6040516020818303038152906040526040517f08c379a0000000000000000000000000000000000000000000000000000000008152600401612d619190613caa565b60405180910390fd5b5050565b6000612dd0826040518060400160405280602081526020017f5361666545524332303a206c6f772d6c6576656c2063616c6c206661696c65648152508573ffffffffffffffffffffffffffffffffffffffff166136f79092919063ffffffff16565b9050600081511115612e305780806020019051810190612df09190615a32565b612e2f576040517f08c379a0000000000000000000000000000000000000000000000000000000008152600401612e2690615ad1565b60405180910390fd5b5b505050565b612eb8846323b872dd60e01b858585604051602401612e5693929190615af1565b604051602081830303815290604052907bffffffffffffffffffffffffffffffffffffffffffffffffffffffff19166020820180517bffffffffffffffffffffffffffffffffffffffffffffffffffffffff8381831617835250505050612d6e565b50505050565b612ec8838361370f565b612ed56000848484612f19565b612f14576040517f08c379a0000000000000000000000000000000000000000000000000000000008152600401612f0b90615868565b60405180910390fd5b505050565b6000612f3a8473ffffffffffffffffffffffffffffffffffffffff1661392c565b15613093578373ffffffffffffffffffffffffffffffffffffffff1663150b7a02612f63611c5c565b8786866040518563ffffffff1660e01b8152600401612f859493929190615b7d565b6020604051808303816000875af1925050508015612fc157506040513d601f19601f82011682018060405250810190612fbe9190615bde565b60015b613043573d8060008114612ff1576040519150601f19603f3d011682016040523d82523d6000602084013e612ff6565b606091505b50600081510361303b576040517f08c379a000000000000000000000000000000000000000000000000000000000815260040161303290615868565b60405180910390fd5b805181602001fd5b63150b7a0260e01b7bffffffffffffffffffffffffffffffffffffffffffffffffffffffff1916817bffffffffffffffffffffffffffffffffffffffffffffffffffffffff191614915050613098565b600190505b949350505050565b60007f80ac58cd000000000000000000000000000000000000000000000000000000007bffffffffffffffffffffffffffffffffffffffffffffffffffffffff1916827bffffffffffffffffffffffffffffffffffffffffffffffffffffffff1916148061316b57507f5b5e139f000000000000000000000000000000000000000000000000000000007bffffffffffffffffffffffffffffffffffffffffffffffffffffffff1916827bffffffffffffffffffffffffffffffffffffffffffffffffffffffff1916145b8061317b575061317a8261394f565b5b9050919050565b50505050565b6008805490506009600083815260200190815260200160002081905550600881908060018154018082558091505060019003906000526020600020016000909190919091505550565b600060016131de8461117f565b6131e89190615c0b565b90506000600760008481526020019081526020016000205490508181146132cd576000600660008673ffffffffffffffffffffffffffffffffffffffff1673ffffffffffffffffffffffffffffffffffffffff168152602001908152602001600020600084815260200190815260200160002054905080600660008773ffffffffffffffffffffffffffffffffffffffff1673ffffffffffffffffffffffffffffffffffffffff168152602001908152602001600020600084815260200190815260200160002081905550816007600083815260200190815260200160002081905550505b6007600084815260200190815260200160002060009055600660008573ffffffffffffffffffffffffffffffffffffffff1673ffffffffffffffffffffffffffffffffffffffff16815260200190815260200160002060008381526020019081526020016000206000905550505050565b600060016008805490506133529190615c0b565b905060006009600084815260200190815260200160002054905060006008838154811061338257613381614aff565b5b9060005260206000200154905080600883815481106133a4576133a3614aff565b5b9060005260206000200181905550816009600083815260200190815260200160002081905550600960008581526020019081526020016000206000905560088054806133f3576133f2615c3f565b5b6001900381819060005260206000200160009055905550505050565b600061341a8361117f565b905081600660008573ffffffffffffffffffffffffffffffffffffffff1673ffffffffffffffffffffffffffffffffffffffff168152602001908152602001600020600083815260200190815260200160002081905550806007600084815260200190815260200160002081905550505050565b60606134b48273ffffffffffffffffffffffffffffffffffffffff16601460ff166134bb565b9050919050565b6060600060028360026134ce919061567c565b6134d89190614e47565b67ffffffffffffffff8111156134f1576134f0613f78565b5b6040519080825280601f01601f1916602001820160405280156135235781602001600182028036833780820191505090505b5090507f30000000000000000000000000000000000000000000000000000000000000008160008151811061355b5761355a614aff565b5b60200101907effffffffffffffffffffffffffffffffffffffffffffffffffffffffffffff1916908160001a9053507f7800000000000000000000000000000000000000000000000000000000000000816001815181106135bf576135be614aff565b5b60200101907effffffffffffffffffffffffffffffffffffffffffffffffffffffffffffff1916908160001a905350600060018460026135ff919061567c565b6136099190614e47565b90505b60018111156136a9577f3031323334353637383961626364656600000000000000000000000000000000600f86166010811061364b5761364a614aff565b5b1a60f81b82828151811061366257613661614aff565b5b60200101907effffffffffffffffffffffffffffffffffffffffffffffffffffffffffffff1916908160001a905350600485901c9450806136a290615c6e565b905061360c565b50600084146136ed576040517f08c379a00000000000000000000000000000000000000000000000000000000081526004016136e490615ce3565b60405180910390fd5b8091505092915050565b606061370684846000856139b9565b90509392505050565b600073ffffffffffffffffffffffffffffffffffffffff168273ffffffffffffffffffffffffffffffffffffffff160361377e576040517f08c379a000000000000000000000000000000000000000000000000000000000815260040161377590615d4f565b60405180910390fd5b61378781612aca565b156137c7576040517f08c379a00000000000000000000000000000000000000000000000000000000081526004016137be90615dbb565b60405180910390fd5b6137d5600083836001612b85565b6137de81612aca565b1561381e576040517f08c379a000000000000000000000000000000000000000000000000000000000815260040161381590615dbb565b60405180910390fd5b6001600360008473ffffffffffffffffffffffffffffffffffffffff1673ffffffffffffffffffffffffffffffffffffffff16815260200190815260200160002060008282540192505081905550816002600083815260200190815260200160002060006101000a81548173ffffffffffffffffffffffffffffffffffffffff021916908373ffffffffffffffffffffffffffffffffffffffff160217905550808273ffffffffffffffffffffffffffffffffffffffff16600073ffffffffffffffffffffffffffffffffffffffff167fddf252ad1be2c89b69c2b068fc378daa952ba7f163c4a11628f55a4df523b3ef60405160405180910390a4613928600083836001612ce3565b5050565b6000808273ffffffffffffffffffffffffffffffffffffffff163b119050919050565b60007f01ffc9a7000000000000000000000000000000000000000000000000000000007bffffffffffffffffffffffffffffffffffffffffffffffffffffffff1916827bffffffffffffffffffffffffffffffffffffffffffffffffffffffff1916149050919050565b6060824710156139fe576040517f08c379a00000000000000000000000000000000000000000000000000000000081526004016139f590615e4d565b60405180910390fd5b6000808673ffffffffffffffffffffffffffffffffffffffff168587604051613a279190615e9e565b60006040518083038185875af1925050503d8060008114613a64576040519150601f19603f3d011682016040523d82523d6000602084013e613a69565b606091505b5091509150613a7a87838387613a86565b92505050949350505050565b60608315613ae8576000835103613ae057613aa08561392c565b613adf576040517f08c379a0000000000000000000000000000000000000000000000000000000008152600401613ad690615f01565b60405180910390fd5b5b829050613af3565b613af28383613afb565b5b949350505050565b600082511115613b0e5781518083602001fd5b806040517f08c379a0000000000000000000000000000000000000000000000000000000008152600401613b429190613caa565b60405180910390fd5b6000604051905090565b600080fd5b600080fd5b60007fffffffff0000000000000000000000000000000000000000000000000000000082169050919050565b613b9481613b5f565b8114613b9f57600080fd5b50565b600081359050613bb181613b8b565b92915050565b600060208284031215613bcd57613bcc613b55565b5b6000613bdb84828501613ba2565b91505092915050565b60008115159050919050565b613bf981613be4565b82525050565b6000602082019050613c146000830184613bf0565b92915050565b600081519050919050565b600082825260208201905092915050565b60005b83811015613c54578082015181840152602081019050613c39565b60008484015250505050565b6000601f19601f8301169050919050565b6000613c7c82613c1a565b613c868185613c25565b9350613c96818560208601613c36565b613c9f81613c60565b840191505092915050565b60006020820190508181036000830152613cc48184613c71565b905092915050565b6000819050919050565b613cdf81613ccc565b8114613cea57600080fd5b50565b600081359050613cfc81613cd6565b92915050565b600060208284031215613d1857613d17613b55565b5b6000613d2684828501613ced565b91505092915050565b600073ffffffffffffffffffffffffffffffffffffffff82169050919050565b6000613d5a82613d2f565b9050919050565b613d6a81613d4f565b82525050565b6000602082019050613d856000830184613d61565b92915050565b613d9481613d4f565b8114613d9f57600080fd5b50565b600081359050613db181613d8b565b92915050565b60008060408385031215613dce57613dcd613b55565b5b6000613ddc85828601613da2565b9250506020613ded85828601613ced565b9150509250929050565b613e0081613ccc565b82525050565b6000602082019050613e1b6000830184613df7565b92915050565b600080600060608486031215613e3a57613e39613b55565b5b6000613e4886828701613da2565b9350506020613e5986828701613da2565b9250506040613e6a86828701613ced565b9150509250925092565b6000819050919050565b613e8781613e74565b8114613e9257600080fd5b50565b600081359050613ea481613e7e565b92915050565b600060208284031215613ec057613ebf613b55565b5b6000613ece84828501613e95565b91505092915050565b613ee081613e74565b82525050565b6000602082019050613efb6000830184613ed7565b92915050565b60008060408385031215613f1857613f17613b55565b5b6000613f2685828601613e95565b9250506020613f3785828601613da2565b9150509250929050565b600060208284031215613f5757613f56613b55565b5b6000613f6584828501613da2565b91505092915050565b600080fd5b600080fd5b7f4e487b7100000000000000000000000000000000000000000000000000000000600052604160045260246000fd5b613fb082613c60565b810181811067ffffffffffffffff82111715613fcf57613fce613f78565b5b80604052505050565b6000613fe2613b4b565b9050613fee8282613fa7565b919050565b600067ffffffffffffffff82111561400e5761400d613f78565b5b61401782613c60565b9050602081019050919050565b82818337600083830152505050565b600061404661404184613ff3565b613fd8565b90508281526020810184848401111561406257614061613f73565b5b61406d848285614024565b509392505050565b600082601f83011261408a57614089613f6e565b5b813561409a848260208601614033565b91505092915050565b6000602082840312156140b9576140b8613b55565b5b600082013567ffffffffffffffff8111156140d7576140d6613b5a565b5b6140e384828501614075565b91505092915050565b6000806040838503121561410357614102613b55565b5b600061411185828601613ced565b925050602061412285828601613ced565b9150509250929050565b61413581613be4565b811461414057600080fd5b50565b6000813590506141528161412c565b92915050565b600067ffffffffffffffff82169050919050565b61417581614158565b811461418057600080fd5b50565b6000813590506141928161416c565b92915050565b600080fd5b600080fd5b60008083601f8401126141b8576141b7613f6e565b5b8235905067ffffffffffffffff8111156141d5576141d4614198565b5b6020830191508360018202830111156141f1576141f061419d565b5b9250929050565b60008083601f84011261420e5761420d613f6e565b5b8235905067ffffffffffffffff81111561422b5761422a614198565b5b6020830191508360018202830111156142475761424661419d565b5b9250929050565b600080600080600080600080600060e08a8c0312156142705761426f613b55565b5b600061427e8c828d01614143565b995050602061428f8c828d01613da2565b98505060406142a08c828d01613ced565b97505060606142b18c828d01613ced565b96505060806142c28c828d01614183565b95505060a08a013567ffffffffffffffff8111156142e3576142e2613b5a565b5b6142ef8c828d016141a2565b945094505060c08a013567ffffffffffffffff81111561431257614311613b5a565b5b61431e8c828d016141f8565b92509250509295985092959850929598565b6000806040838503121561434757614346613b55565b5b600061435585828601613da2565b925050602061436685828601614143565b9150509250929050565b6000806000806000806000806000806101008b8d03121561439457614393613b55565b5b60006143a28d828e01614143565b9a505060206143b38d828e01613da2565b99505060406143c48d828e01613ced565b98505060606143d58d828e01613ced565b97505060806143e68d828e01614183565b96505060a08b013567ffffffffffffffff81111561440757614406613b5a565b5b6144138d828e016141a2565b955095505060c08b013567ffffffffffffffff81111561443657614435613b5a565b5b6144428d828e016141f8565b935093505060e06144558d828e01613ced565b9150509295989b9194979a5092959850565b600067ffffffffffffffff82111561448257614481613f78565b5b61448b82613c60565b9050602081019050919050565b60006144ab6144a684614467565b613fd8565b9050828152602081018484840111156144c7576144c6613f73565b5b6144d2848285614024565b509392505050565b600082601f8301126144ef576144ee613f6e565b5b81356144ff848260208601614498565b91505092915050565b6000806000806080858703121561452257614521613b55565b5b600061453087828801613da2565b945050602061454187828801613da2565b935050604061455287828801613ced565b925050606085013567ffffffffffffffff81111561457357614572613b5a565b5b61457f878288016144da565b91505092959194509250565b600080604083850312156145a2576145a1613b55565b5b60006145b085828601613da2565b92505060206145c185828601613da2565b9150509250929050565b600081519050919050565b600082825260208201905092915050565b6000819050602082019050919050565b61460081613ccc565b82525050565b600061461283836145f7565b60208301905092915050565b6000602082019050919050565b6000614636826145cb565b61464081856145d6565b935061464b836145e7565b8060005b8381101561467c5781516146638882614606565b975061466e8361461e565b92505060018101905061464f565b5085935050505092915050565b600060208201905081810360008301526146a3818461462b565b905092915050565b7f4e487b7100000000000000000000000000000000000000000000000000000000600052602260045260246000fd5b600060028204905060018216806146f257607f821691505b602082108103614705576147046146ab565b5b50919050565b7f4552433732313a20617070726f76616c20746f2063757272656e74206f776e6560008201527f7200000000000000000000000000000000000000000000000000000000000000602082015250565b6000614767602183613c25565b91506147728261470b565b604082019050919050565b600060208201905081810360008301526147968161475a565b9050919050565b7f4552433732313a20617070726f76652063616c6c6572206973206e6f7420746f60008201527f6b656e206f776e6572206f7220617070726f76656420666f7220616c6c000000602082015250565b60006147f9603d83613c25565b91506148048261479d565b604082019050919050565b60006020820190508181036000830152614828816147ec565b9050919050565b7f4552433732313a2063616c6c6572206973206e6f7420746f6b656e206f776e6560008201527f72206f7220617070726f76656400000000000000000000000000000000000000602082015250565b600061488b602d83613c25565b91506148968261482f565b604082019050919050565b600060208201905081810360008301526148ba8161487e565b9050919050565b7f455243373231456e756d657261626c653a206f776e657220696e646578206f7560008201527f74206f6620626f756e6473000000000000000000000000000000000000000000602082015250565b600061491d602b83613c25565b9150614928826148c1565b604082019050919050565b6000602082019050818103600083015261494c81614910565b9050919050565b7f416363657373436f6e74726f6c3a2063616e206f6e6c792072656e6f756e636560008201527f20726f6c657320666f722073656c660000000000000000000000000000000000602082015250565b60006149af602f83613c25565b91506149ba82614953565b604082019050919050565b600060208201905081810360008301526149de816149a2565b9050919050565b600081905092915050565b50565b6000614a006000836149e5565b9150614a0b826149f0565b600082019050919050565b6000614a21826149f3565b9150819050919050565b600081519050614a3a81613cd6565b92915050565b600060208284031215614a5657614a55613b55565b5b6000614a6484828501614a2b565b91505092915050565b7f455243373231456e756d657261626c653a20676c6f62616c20696e646578206f60008201527f7574206f6620626f756e64730000000000000000000000000000000000000000602082015250565b6000614ac9602c83613c25565b9150614ad482614a6d565b604082019050919050565b60006020820190508181036000830152614af881614abc565b9050919050565b7f4e487b7100000000000000000000000000000000000000000000000000000000600052603260045260246000fd5b60008190508160005260206000209050919050565b60006020601f8301049050919050565b600082821b905092915050565b600060088302614b907fffffffffffffffffffffffffffffffffffffffffffffffffffffffffffffffff82614b53565b614b9a8683614b53565b95508019841693508086168417925050509392505050565b6000819050919050565b6000614bd7614bd2614bcd84613ccc565b614bb2565b613ccc565b9050919050565b6000819050919050565b614bf183614bbc565b614c05614bfd82614bde565b848454614b60565b825550505050565b600090565b614c1a614c0d565b614c25818484614be8565b505050565b5b81811015614c4957614c3e600082614c12565b600181019050614c2b565b5050565b601f821115614c8e57614c5f81614b2e565b614c6884614b43565b81016020851015614c77578190505b614c8b614c8385614b43565b830182614c2a565b50505b505050565b600082821c905092915050565b6000614cb160001984600802614c93565b1980831691505092915050565b6000614cca8383614ca0565b9150826002028217905092915050565b614ce382613c1a565b67ffffffffffffffff811115614cfc57614cfb613f78565b5b614d0682546146da565b614d11828285614c4d565b600060209050601f831160018114614d445760008415614d32578287015190505b614d3c8582614cbe565b865550614da4565b601f198416614d5286614b2e565b60005b82811015614d7a57848901518255600182019150602085019450602081019050614d55565b86831015614d975784890151614d93601f891682614ca0565b8355505b6001600288020188555050505b505050505050565b7f4552433732313a20696e76616c696420746f6b656e2049440000000000000000600082015250565b6000614de2601883613c25565b9150614ded82614dac565b602082019050919050565b60006020820190508181036000830152614e1181614dd5565b9050919050565b7f4e487b7100000000000000000000000000000000000000000000000000000000600052601160045260246000fd5b6000614e5282613ccc565b9150614e5d83613ccc565b9250828201905080821115614e7557614e74614e18565b5b92915050565b6000604082019050614e906000830185613df7565b614e9d6020830184613df7565b9392505050565b7f4552433732313a2061646472657373207a65726f206973206e6f74206120766160008201527f6c6964206f776e65720000000000000000000000000000000000000000000000602082015250565b6000614f00602983613c25565b9150614f0b82614ea4565b604082019050919050565b60006020820190508181036000830152614f2f81614ef3565b9050919050565b60008160601b9050919050565b6000614f4e82614f36565b9050919050565b6000614f6082614f43565b9050919050565b614f78614f7382613d4f565b614f55565b82525050565b60008160f81b9050919050565b6000614f9682614f7e565b9050919050565b6000614fa882614f8b565b9050919050565b614fc0614fbb82613be4565b614f9d565b82525050565b6000819050919050565b614fe1614fdc82613ccc565b614fc6565b82525050565b60008160c01b9050919050565b6000614fff82614fe7565b9050919050565b61501761501282614158565b614ff4565b82525050565b600081905092915050565b6000615034838561501d565b9350615041838584614024565b82840190509392505050565b6000615059828a614f67565b6014820191506150698289614faf565b6001820191506150798288614fd0565b6020820191506150898287614fd0565b6020820191506150998286615006565b6008820191506150aa828486615028565b915081905098975050505050505050565b60006150c682613ccc565b91507fffffffffffffffffffffffffffffffffffffffffffffffffffffffffffffffff82036150f8576150f7614e18565b5b600182019050919050565b600061510f8385613c25565b935061511c838584614024565b61512583613c60565b840190509392505050565b60006040820190506151456000830186613df7565b8181036020830152615158818486615103565b9050949350505050565b60006040820190506151776000830185613d61565b6151846020830184613bf0565b9392505050565b6000615197828b614f67565b6014820191506151a7828a614faf565b6001820191506151b78289614fd0565b6020820191506151c78288614fd0565b6020820191506151d78287615006565b6008820191506151e8828587615028565b91506151f48284614fd0565b6020820191508190509998505050505050505050565b60006040820190508181036000830152615224818661462b565b90508181036020830152615239818486615103565b9050949350505050565b7f4552433732314d657461646174613a2055524920717565727920666f72206e6f60008201527f6e6578697374656e7420746f6b656e0000000000000000000000000000000000602082015250565b600061529f602f83613c25565b91506152aa82615243565b604082019050919050565b600060208201905081810360008301526152ce81615292565b9050919050565b600081546152e2816146da565b6152ec818661501d565b94506001821660008114615307576001811461531c5761534f565b60ff198316865281151582028601935061534f565b61532585614b2e565b60005b8381101561534757815481890152600182019150602081019050615328565b838801955050505b50505092915050565b600061536482856152d5565b91506153708284614fd0565b6020820191508190509392505050565b60006040820190506153956000830185613d61565b6153a26020830184613d61565b9392505050565b7f4552433732313a207472616e736665722066726f6d20696e636f72726563742060008201527f6f776e6572000000000000000000000000000000000000000000000000000000602082015250565b6000615405602583613c25565b9150615410826153a9565b604082019050919050565b60006020820190508181036000830152615434816153f8565b9050919050565b7f4552433732313a207472616e7366657220746f20746865207a65726f2061646460008201527f7265737300000000000000000000000000000000000000000000000000000000602082015250565b6000615497602483613c25565b91506154a28261543b565b604082019050919050565b600060208201905081810360008301526154c68161548a565b9050919050565b60006040820190506154e26000830185613d61565b6154ef6020830184613df7565b9392505050565b7f19457468657265756d205369676e6564204d6573736167653a0a333200000000600082015250565b600061552c601c8361501d565b9150615537826154f6565b601c82019050919050565b6000819050919050565b61555d61555882613e74565b615542565b82525050565b600061556e8261551f565b915061557a828461554c565b60208201915081905092915050565b600069ffffffffffffffffffff82169050919050565b6155a881615589565b81146155b357600080fd5b50565b6000815190506155c58161559f565b92915050565b6000819050919050565b6155de816155cb565b81146155e957600080fd5b50565b6000815190506155fb816155d5565b92915050565b600080600080600060a0868803121561561d5761561c613b55565b5b600061562b888289016155b6565b955050602061563c888289016155ec565b945050604061564d88828901614a2b565b935050606061565e88828901614a2b565b925050608061566f888289016155b6565b9150509295509295909350565b600061568782613ccc565b915061569283613ccc565b92508282026156a081613ccc565b915082820484148315176156b7576156b6614e18565b5b5092915050565b7f4e487b7100000000000000000000000000000000000000000000000000000000600052601260045260246000fd5b60006156f882613ccc565b915061570383613ccc565b925082615713576157126156be565b5b828204905092915050565b7f6e6f7420656e6f7567682076616c756500000000000000000000000000000000600082015250565b6000615754601083613c25565b915061575f8261571e565b602082019050919050565b6000602082019050818103600083015261578381615747565b9050919050565b7f4552433732313a20617070726f766520746f2063616c6c657200000000000000600082015250565b60006157c0601983613c25565b91506157cb8261578a565b602082019050919050565b600060208201905081810360008301526157ef816157b3565b9050919050565b7f4552433732313a207472616e7366657220746f206e6f6e20455243373231526560008201527f63656976657220696d706c656d656e7465720000000000000000000000000000602082015250565b6000615852603283613c25565b915061585d826157f6565b604082019050919050565b6000602082019050818103600083015261588181615845565b9050919050565b7f455243373231456e756d657261626c653a20636f6e736563757469766520747260008201527f616e7366657273206e6f7420737570706f727465640000000000000000000000602082015250565b60006158e4603583613c25565b91506158ef82615888565b604082019050919050565b60006020820190508181036000830152615913816158d7565b9050919050565b7f416363657373436f6e74726f6c3a206163636f756e7420000000000000000000600082015250565b600061595060178361501d565b915061595b8261591a565b601782019050919050565b600061597182613c1a565b61597b818561501d565b935061598b818560208601613c36565b80840191505092915050565b7f206973206d697373696e6720726f6c6520000000000000000000000000000000600082015250565b60006159cd60118361501d565b91506159d882615997565b601182019050919050565b60006159ee82615943565b91506159fa8285615966565b9150615a05826159c0565b9150615a118284615966565b91508190509392505050565b600081519050615a2c8161412c565b92915050565b600060208284031215615a4857615a47613b55565b5b6000615a5684828501615a1d565b91505092915050565b7f5361666545524332303a204552433230206f7065726174696f6e20646964206e60008201527f6f74207375636365656400000000000000000000000000000000000000000000602082015250565b6000615abb602a83613c25565b9150615ac682615a5f565b604082019050919050565b60006020820190508181036000830152615aea81615aae565b9050919050565b6000606082019050615b066000830186613d61565b615b136020830185613d61565b615b206040830184613df7565b949350505050565b600081519050919050565b600082825260208201905092915050565b6000615b4f82615b28565b615b598185615b33565b9350615b69818560208601613c36565b615b7281613c60565b840191505092915050565b6000608082019050615b926000830187613d61565b615b9f6020830186613d61565b615bac6040830185613df7565b8181036060830152615bbe8184615b44565b905095945050505050565b600081519050615bd881613b8b565b92915050565b600060208284031215615bf457615bf3613b55565b5b6000615c0284828501615bc9565b91505092915050565b6000615c1682613ccc565b9150615c2183613ccc565b9250828203905081811115615c3957615c38614e18565b5b92915050565b7f4e487b7100000000000000000000000000000000000000000000000000000000600052603160045260246000fd5b6000615c7982613ccc565b915060008203615c8c57615c8b614e18565b5b600182039050919050565b7f537472696e67733a20686578206c656e67746820696e73756666696369656e74600082015250565b6000615ccd602083613c25565b9150615cd882615c97565b602082019050919050565b60006020820190508181036000830152615cfc81615cc0565b9050919050565b7f4552433732313a206d696e7420746f20746865207a65726f2061646472657373600082015250565b6000615d39602083613c25565b9150615d4482615d03565b602082019050919050565b60006020820190508181036000830152615d6881615d2c565b9050919050565b7f4552433732313a20746f6b656e20616c7265616479206d696e74656400000000600082015250565b6000615da5601c83613c25565b9150615db082615d6f565b602082019050919050565b60006020820190508181036000830152615dd481615d98565b9050919050565b7f416464726573733a20696e73756666696369656e742062616c616e636520666f60008201527f722063616c6c0000000000000000000000000000000000000000000000000000602082015250565b6000615e37602683613c25565b9150615e4282615ddb565b604082019050919050565b60006020820190508181036000830152615e6681615e2a565b9050919050565b6000615e7882615b28565b615e8281856149e5565b9350615e92818560208601613c36565b80840191505092915050565b6000615eaa8284615e6d565b915081905092915050565b7f416464726573733a2063616c6c20746f206e6f6e2d636f6e7472616374000000600082015250565b6000615eeb601d83613c25565b9150615ef682615eb5565b602082019050919050565b60006020820190508181036000830152615f1a81615ede565b905091905056fea26469706673582212207f4fca6058588b9f050f3845d66f3af8d1fc5a2c4a7fb830970e41b79afed43264736f6c63430008110033",
  "devdoc": {
    "kind": "dev",
    "methods": {
      "approve(address,uint256)": {
        "details": "See {IERC721-approve}."
      },
      "balanceOf(address)": {
        "details": "See {IERC721-balanceOf}."
      },
      "getApproved(uint256)": {
        "details": "See {IERC721-getApproved}."
      },
      "getRoleAdmin(bytes32)": {
        "details": "Returns the admin role that controls `role`. See {grantRole} and {revokeRole}. To change a role's admin, use {_setRoleAdmin}."
      },
      "grantRole(bytes32,address)": {
        "details": "Grants `role` to `account`. If `account` had not been already granted `role`, emits a {RoleGranted} event. Requirements: - the caller must have ``role``'s admin role. May emit a {RoleGranted} event."
      },
      "hasRole(bytes32,address)": {
        "details": "Returns `true` if `account` has been granted `role`."
      },
      "isApprovedForAll(address,address)": {
        "details": "See {IERC721-isApprovedForAll}."
      },
      "name()": {
        "details": "See {IERC721Metadata-name}."
      },
      "ownerOf(uint256)": {
        "details": "See {IERC721-ownerOf}."
      },
      "renounceRole(bytes32,address)": {
        "details": "Revokes `role` from the calling account. Roles are often managed via {grantRole} and {revokeRole}: this function's purpose is to provide a mechanism for accounts to lose their privileges if they are compromised (such as when a trusted device is misplaced). If the calling account had been revoked `role`, emits a {RoleRevoked} event. Requirements: - the caller must be `account`. May emit a {RoleRevoked} event."
      },
      "revokeRole(bytes32,address)": {
        "details": "Revokes `role` from `account`. If `account` had been granted `role`, emits a {RoleRevoked} event. Requirements: - the caller must have ``role``'s admin role. May emit a {RoleRevoked} event."
      },
      "safeTransferFrom(address,address,uint256)": {
        "details": "See {IERC721-safeTransferFrom}."
      },
      "safeTransferFrom(address,address,uint256,bytes)": {
        "details": "See {IERC721-safeTransferFrom}."
      },
      "setApprovalForAll(address,bool)": {
        "details": "See {IERC721-setApprovalForAll}."
      },
      "symbol()": {
        "details": "See {IERC721Metadata-symbol}."
      },
      "tokenByIndex(uint256)": {
        "details": "See {IERC721Enumerable-tokenByIndex}."
      },
      "tokenOfOwnerByIndex(address,uint256)": {
        "details": "See {IERC721Enumerable-tokenOfOwnerByIndex}."
      },
      "tokenURI(uint256)": {
        "details": "See {IERC721Metadata-tokenURI}."
      },
      "totalSupply()": {
        "details": "See {IERC721Enumerable-totalSupply}."
      },
      "transferFrom(address,address,uint256)": {
        "details": "See {IERC721-transferFrom}."
      }
    },
    "version": 1
  },
  "userdoc": {
    "kind": "user",
    "methods": {},
    "version": 1
  },
  "storageLayout": {
    "storage": [
      {
        "astId": 1203,
        "contract": "contracts/CornersOfSpace.sol:CornersOfSpace",
        "label": "_name",
        "offset": 0,
        "slot": "0",
        "type": "t_string_storage"
      },
      {
        "astId": 1205,
        "contract": "contracts/CornersOfSpace.sol:CornersOfSpace",
        "label": "_symbol",
        "offset": 0,
        "slot": "1",
        "type": "t_string_storage"
      },
      {
        "astId": 1209,
        "contract": "contracts/CornersOfSpace.sol:CornersOfSpace",
        "label": "_owners",
        "offset": 0,
        "slot": "2",
        "type": "t_mapping(t_uint256,t_address)"
      },
      {
        "astId": 1213,
        "contract": "contracts/CornersOfSpace.sol:CornersOfSpace",
        "label": "_balances",
        "offset": 0,
        "slot": "3",
        "type": "t_mapping(t_address,t_uint256)"
      },
      {
        "astId": 1217,
        "contract": "contracts/CornersOfSpace.sol:CornersOfSpace",
        "label": "_tokenApprovals",
        "offset": 0,
        "slot": "4",
        "type": "t_mapping(t_uint256,t_address)"
      },
      {
        "astId": 1223,
        "contract": "contracts/CornersOfSpace.sol:CornersOfSpace",
        "label": "_operatorApprovals",
        "offset": 0,
        "slot": "5",
        "type": "t_mapping(t_address,t_mapping(t_address,t_bool))"
      },
      {
        "astId": 2253,
        "contract": "contracts/CornersOfSpace.sol:CornersOfSpace",
        "label": "_ownedTokens",
        "offset": 0,
        "slot": "6",
        "type": "t_mapping(t_address,t_mapping(t_uint256,t_uint256))"
      },
      {
        "astId": 2257,
        "contract": "contracts/CornersOfSpace.sol:CornersOfSpace",
        "label": "_ownedTokensIndex",
        "offset": 0,
        "slot": "7",
        "type": "t_mapping(t_uint256,t_uint256)"
      },
      {
        "astId": 2260,
        "contract": "contracts/CornersOfSpace.sol:CornersOfSpace",
        "label": "_allTokens",
        "offset": 0,
        "slot": "8",
        "type": "t_array(t_uint256)dyn_storage"
      },
      {
        "astId": 2264,
        "contract": "contracts/CornersOfSpace.sol:CornersOfSpace",
        "label": "_allTokensIndex",
        "offset": 0,
        "slot": "9",
        "type": "t_mapping(t_uint256,t_uint256)"
      },
      {
        "astId": 404,
        "contract": "contracts/CornersOfSpace.sol:CornersOfSpace",
        "label": "_roles",
        "offset": 0,
        "slot": "10",
        "type": "t_mapping(t_bytes32,t_struct(RoleData)399_storage)"
      },
      {
        "astId": 4114,
        "contract": "contracts/CornersOfSpace.sol:CornersOfSpace",
        "label": "eligibleTokens",
        "offset": 0,
        "slot": "11",
        "type": "t_mapping(t_address,t_bool)"
      },
      {
        "astId": 4116,
        "contract": "contracts/CornersOfSpace.sol:CornersOfSpace",
        "label": "liquidityReceiver",
        "offset": 0,
        "slot": "12",
        "type": "t_address"
      },
      {
        "astId": 4118,
        "contract": "contracts/CornersOfSpace.sol:CornersOfSpace",
        "label": "dao",
        "offset": 0,
        "slot": "13",
        "type": "t_address"
      },
      {
        "astId": 4121,
        "contract": "contracts/CornersOfSpace.sol:CornersOfSpace",
        "label": "bnbUSDFeed",
        "offset": 0,
        "slot": "14",
        "type": "t_contract(AggregatorV3Interface)379"
      },
      {
        "astId": 4133,
        "contract": "contracts/CornersOfSpace.sol:CornersOfSpace",
        "label": "verifier",
        "offset": 0,
        "slot": "15",
        "type": "t_address"
      },
      {
        "astId": 4135,
        "contract": "contracts/CornersOfSpace.sol:CornersOfSpace",
        "label": "_currentTokenId",
        "offset": 0,
        "slot": "16",
        "type": "t_uint256"
      },
      {
        "astId": 4137,
        "contract": "contracts/CornersOfSpace.sol:CornersOfSpace",
        "label": "baseURI",
        "offset": 0,
        "slot": "17",
        "type": "t_string_storage"
      },
      {
        "astId": 4139,
        "contract": "contracts/CornersOfSpace.sol:CornersOfSpace",
        "label": "daoSharePercentage",
        "offset": 0,
        "slot": "18",
        "type": "t_uint256"
      },
      {
        "astId": 4141,
        "contract": "contracts/CornersOfSpace.sol:CornersOfSpace",
        "label": "liquiditySharePercentage",
        "offset": 0,
        "slot": "19",
        "type": "t_uint256"
      },
      {
        "astId": 4145,
        "contract": "contracts/CornersOfSpace.sol:CornersOfSpace",
        "label": "usedNonces",
        "offset": 0,
        "slot": "20",
        "type": "t_mapping(t_uint256,t_bool)"
      }
    ],
    "types": {
      "t_address": {
        "encoding": "inplace",
        "label": "address",
        "numberOfBytes": "20"
      },
      "t_array(t_uint256)dyn_storage": {
        "base": "t_uint256",
        "encoding": "dynamic_array",
        "label": "uint256[]",
        "numberOfBytes": "32"
      },
      "t_bool": {
        "encoding": "inplace",
        "label": "bool",
        "numberOfBytes": "1"
      },
      "t_bytes32": {
        "encoding": "inplace",
        "label": "bytes32",
        "numberOfBytes": "32"
      },
      "t_contract(AggregatorV3Interface)379": {
        "encoding": "inplace",
        "label": "contract AggregatorV3Interface",
        "numberOfBytes": "20"
      },
      "t_mapping(t_address,t_bool)": {
        "encoding": "mapping",
        "key": "t_address",
        "label": "mapping(address => bool)",
        "numberOfBytes": "32",
        "value": "t_bool"
      },
      "t_mapping(t_address,t_mapping(t_address,t_bool))": {
        "encoding": "mapping",
        "key": "t_address",
        "label": "mapping(address => mapping(address => bool))",
        "numberOfBytes": "32",
        "value": "t_mapping(t_address,t_bool)"
      },
      "t_mapping(t_address,t_mapping(t_uint256,t_uint256))": {
        "encoding": "mapping",
        "key": "t_address",
        "label": "mapping(address => mapping(uint256 => uint256))",
        "numberOfBytes": "32",
        "value": "t_mapping(t_uint256,t_uint256)"
      },
      "t_mapping(t_address,t_uint256)": {
        "encoding": "mapping",
        "key": "t_address",
        "label": "mapping(address => uint256)",
        "numberOfBytes": "32",
        "value": "t_uint256"
      },
      "t_mapping(t_bytes32,t_struct(RoleData)399_storage)": {
        "encoding": "mapping",
        "key": "t_bytes32",
        "label": "mapping(bytes32 => struct AccessControl.RoleData)",
        "numberOfBytes": "32",
        "value": "t_struct(RoleData)399_storage"
      },
      "t_mapping(t_uint256,t_address)": {
        "encoding": "mapping",
        "key": "t_uint256",
        "label": "mapping(uint256 => address)",
        "numberOfBytes": "32",
        "value": "t_address"
      },
      "t_mapping(t_uint256,t_bool)": {
        "encoding": "mapping",
        "key": "t_uint256",
        "label": "mapping(uint256 => bool)",
        "numberOfBytes": "32",
        "value": "t_bool"
      },
      "t_mapping(t_uint256,t_uint256)": {
        "encoding": "mapping",
        "key": "t_uint256",
        "label": "mapping(uint256 => uint256)",
        "numberOfBytes": "32",
        "value": "t_uint256"
      },
      "t_string_storage": {
        "encoding": "bytes",
        "label": "string",
        "numberOfBytes": "32"
      },
      "t_struct(RoleData)399_storage": {
        "encoding": "inplace",
        "label": "struct AccessControl.RoleData",
        "members": [
          {
            "astId": 396,
            "contract": "contracts/CornersOfSpace.sol:CornersOfSpace",
            "label": "members",
            "offset": 0,
            "slot": "0",
            "type": "t_mapping(t_address,t_bool)"
          },
          {
            "astId": 398,
            "contract": "contracts/CornersOfSpace.sol:CornersOfSpace",
            "label": "adminRole",
            "offset": 0,
            "slot": "1",
            "type": "t_bytes32"
          }
        ],
        "numberOfBytes": "64"
      },
      "t_uint256": {
        "encoding": "inplace",
        "label": "uint256",
        "numberOfBytes": "32"
      }
    }
  }
}